{
  "contractName": "SubdomainRedirect",
  "abi": [
    {
      "constant": false,
      "inputs": [
        {
          "name": "name",
          "type": "string"
        },
        {
          "name": "redirect",
          "type": "string"
        }
      ],
      "name": "createRegistration",
      "outputs": [],
      "payable": true,
      "stateMutability": "payable",
      "type": "function"
    },
    {
      "constant": true,
      "inputs": [],
      "name": "registrationFee",
      "outputs": [
        {
          "name": "",
          "type": "uint256"
        }
      ],
      "payable": false,
      "stateMutability": "view",
      "type": "function"
    },
    {
      "constant": false,
      "inputs": [
        {
          "name": "name",
          "type": "string"
        }
      ],
      "name": "renewRegistration",
      "outputs": [],
      "payable": true,
      "stateMutability": "payable",
      "type": "function"
    },
    {
      "constant": true,
      "inputs": [],
      "name": "registrations",
      "outputs": [
        {
          "name": "",
          "type": "uint256"
        }
      ],
      "payable": false,
      "stateMutability": "view",
      "type": "function"
    },
    {
      "constant": true,
      "inputs": [],
      "name": "registrationPeriod",
      "outputs": [
        {
          "name": "",
          "type": "uint256"
        }
      ],
      "payable": false,
      "stateMutability": "view",
      "type": "function"
    },
    {
      "constant": false,
      "inputs": [
        {
          "name": "name",
          "type": "string"
        },
        {
          "name": "full",
          "type": "bool"
        }
      ],
      "name": "clearRegistration",
      "outputs": [],
      "payable": false,
      "stateMutability": "nonpayable",
      "type": "function"
    },
    {
      "constant": false,
      "inputs": [
        {
          "name": "name",
          "type": "string"
        },
        {
          "name": "redirect",
          "type": "string"
        }
      ],
      "name": "updateRegistration",
      "outputs": [],
      "payable": false,
      "stateMutability": "nonpayable",
      "type": "function"
    },
    {
      "constant": true,
      "inputs": [],
      "name": "owner",
      "outputs": [
        {
          "name": "",
          "type": "address"
        }
      ],
      "payable": false,
      "stateMutability": "view",
      "type": "function"
    },
    {
      "constant": true,
      "inputs": [
        {
          "name": "index",
          "type": "uint256"
        }
      ],
      "name": "getRegistration",
      "outputs": [
        {
          "name": "",
          "type": "string"
        },
        {
          "name": "",
          "type": "string"
        },
        {
          "name": "",
          "type": "uint256"
        },
        {
          "name": "",
          "type": "address"
        }
      ],
      "payable": false,
      "stateMutability": "view",
      "type": "function"
    },
    {
      "constant": false,
      "inputs": [
        {
          "name": "newOwner",
          "type": "address"
        }
      ],
      "name": "transferOwnership",
      "outputs": [],
      "payable": false,
      "stateMutability": "nonpayable",
      "type": "function"
    },
    {
      "anonymous": false,
      "inputs": [
        {
          "indexed": true,
          "name": "previousOwner",
          "type": "address"
        },
        {
          "indexed": true,
          "name": "newOwner",
          "type": "address"
        }
      ],
      "name": "OwnershipTransferred",
      "type": "event"
    }
  ],
  "bytecode": "0x6060604052620f42406001556000600255630208c080600355336000806101000a81548173ffffffffffffffffffffffffffffffffffffffff021916908373ffffffffffffffffffffffffffffffffffffffff160217905550610e99806100676000396000f3006060604052600436106100a4576000357c0100000000000000000000000000000000000000000000000000000000900463ffffffff16806312e31fe4146100a957806314c44e09146100e0578063326b12da1461010957806346ec06e51461012c5780635939ee04146101555780636bbf1d571461017e57806371e11354146101b75780638da5cb5b146101f9578063c1f771fb1461024e578063f2fde38b14610390575b600080fd5b6100de6004808035906020019082018035906020019190919290803590602001908201803590602001919091929050506103c9565b005b34156100eb57600080fd5b6100f36105a7565b6040518082815260200191505060405180910390f35b61012a600480803590602001908201803590602001919091929050506105ad565b005b341561013757600080fd5b61013f610672565b6040518082815260200191505060405180910390f35b341561016057600080fd5b610168610678565b6040518082815260200191505060405180910390f35b341561018957600080fd5b6101b560048080359060200190820180359060200191909192908035151590602001909190505061067e565b005b34156101c257600080fd5b6101f76004808035906020019082018035906020019190919290803590602001908201803590602001919091929050506107c8565b005b341561020457600080fd5b61020c6108bb565b604051808273ffffffffffffffffffffffffffffffffffffffff1673ffffffffffffffffffffffffffffffffffffffff16815260200191505060405180910390f35b341561025957600080fd5b61026f60048080359060200190919050506108e0565b6040518080602001806020018581526020018473ffffffffffffffffffffffffffffffffffffffff1673ffffffffffffffffffffffffffffffffffffffff168152602001838103835287818151815260200191508051906020019080838360005b838110156102eb5780820151818401526020810190506102d0565b50505050905090810190601f1680156103185780820380516001836020036101000a031916815260200191505b50838103825286818151815260200191508051906020019080838360005b83811015610351578082015181840152602081019050610336565b50505050905090810190601f16801561037e5780820380516001836020036101000a031916815260200191505b50965050505050505060405180910390f35b341561039b57600080fd5b6103c7600480803573ffffffffffffffffffffffffffffffffffffffff16906020019091905050610bdf565b005b60015434101580156104815750600073ffffffffffffffffffffffffffffffffffffffff166004858560405180838380828437820191505092505050908152602001604051809103902060010160009054906101000a900473ffffffffffffffffffffffffffffffffffffffff1673ffffffffffffffffffffffffffffffffffffffff1614806104805750426004858560405180838380828437820191505092505050908152602001604051809103902060020154105b5b80156104905750600082829050115b151561049b57600080fd5b81816004868660405180838380828437820191505092505050908152602001604051809103902060000191906104d2929190610d34565b50336004858560405180838380828437820191505092505050908152602001604051809103902060010160006101000a81548173ffffffffffffffffffffffffffffffffffffffff021916908373ffffffffffffffffffffffffffffffffffffffff160217905550600354420160048585604051808383808284378201915050925050509081526020016040518091039020600201819055508383600560006002548152602001908152602001600020919061058f929190610d34565b50600160026000828254019250508190555050505050565b60015481565b600154341015801561063257503373ffffffffffffffffffffffffffffffffffffffff166004838360405180838380828437820191505092505050908152602001604051809103902060010160009054906101000a900473ffffffffffffffffffffffffffffffffffffffff1673ffffffffffffffffffffffffffffffffffffffff16145b151561063d57600080fd5b600354420160048383604051808383808284378201915050925050509081526020016040518091039020600201819055505050565b60025481565b60035481565b6000809054906101000a900473ffffffffffffffffffffffffffffffffffffffff1673ffffffffffffffffffffffffffffffffffffffff163373ffffffffffffffffffffffffffffffffffffffff161415156106d957600080fd5b6020604051908101604052806000815250600484846040518083838082843782019150509250505090815260200160405180910390206000019080519060200190610725929190610db4565b5080156107c35760006004848460405180838380828437820191505092505050908152602001604051809103902060010160006101000a81548173ffffffffffffffffffffffffffffffffffffffff021916908373ffffffffffffffffffffffffffffffffffffffff160217905550600060048484604051808383808284378201915050925050509081526020016040518091039020600201819055505b505050565b3373ffffffffffffffffffffffffffffffffffffffff166004858560405180838380828437820191505092505050908152602001604051809103902060010160009054906101000a900473ffffffffffffffffffffffffffffffffffffffff1673ffffffffffffffffffffffffffffffffffffffff161480156108725750426004858560405180838380828437820191505092505050908152602001604051809103902060020154115b151561087d57600080fd5b81816004868660405180838380828437820191505092505050908152602001604051809103902060000191906108b4929190610d34565b5050505050565b6000809054906101000a900473ffffffffffffffffffffffffffffffffffffffff1681565b6108e8610e34565b6108f0610e34565b6000806108fb610e34565b6000861015801561090d575060025486105b151561091857600080fd5b600560008781526020019081526020016000208054600181600116156101000203166002900480601f0160208091040260200160405190810160405280929190818152602001828054600181600116156101000203166002900480156109bf5780601f10610994576101008083540402835291602001916109bf565b820191906000526020600020905b8154815290600101906020018083116109a257829003601f168201915b50505050509050806004826040518082805190602001908083835b6020831015156109ff57805182526020820191506020810190506020830392506109da565b6001836020036101000a03801982511681845116808217855250505050505090500191505090815260200160405180910390206000016004836040518082805190602001908083835b602083101515610a6d5780518252602082019150602081019050602083039250610a48565b6001836020036101000a0380198251168184511680821785525050505050509050019150509081526020016040518091039020600201546004846040518082805190602001908083835b602083101515610adc5780518252602082019150602081019050602083039250610ab7565b6001836020036101000a038019825116818451168082178552505050505050905001915050908152602001604051809103902060010160009054906101000a900473ffffffffffffffffffffffffffffffffffffffff16828054600181600116156101000203166002900480601f016020809104026020016040519081016040528092919081815260200182805460018160011615610100020316600290048015610bc85780601f10610b9d57610100808354040283529160200191610bc8565b820191906000526020600020905b815481529060010190602001808311610bab57829003601f168201915b505050505092509450945094509450509193509193565b6000809054906101000a900473ffffffffffffffffffffffffffffffffffffffff1673ffffffffffffffffffffffffffffffffffffffff163373ffffffffffffffffffffffffffffffffffffffff16141515610c3a57600080fd5b600073ffffffffffffffffffffffffffffffffffffffff168173ffffffffffffffffffffffffffffffffffffffff1614151515610c7657600080fd5b8073ffffffffffffffffffffffffffffffffffffffff166000809054906101000a900473ffffffffffffffffffffffffffffffffffffffff1673ffffffffffffffffffffffffffffffffffffffff167f8be0079c531659141344cd1fd0a4f28419497f9722a3daafe3b4186f6b6457e060405160405180910390a3806000806101000a81548173ffffffffffffffffffffffffffffffffffffffff021916908373ffffffffffffffffffffffffffffffffffffffff16021790555050565b828054600181600116156101000203166002900490600052602060002090601f016020900481019282601f10610d7557803560ff1916838001178555610da3565b82800160010185558215610da3579182015b82811115610da2578235825591602001919060010190610d87565b5b509050610db09190610e48565b5090565b828054600181600116156101000203166002900490600052602060002090601f016020900481019282601f10610df557805160ff1916838001178555610e23565b82800160010185558215610e23579182015b82811115610e22578251825591602001919060010190610e07565b5b509050610e309190610e48565b5090565b602060405190810160405280600081525090565b610e6a91905b80821115610e66576000816000905550600101610e4e565b5090565b905600a165627a7a723058207064daa56c70d26ea65d3bc9f1158bb27e0087ec0728f3079e42959622b559db0029",
  "source": "pragma solidity ^0.4.18;\n\nimport 'zeppelin-solidity/contracts/ownership/Ownable.sol';\n\ncontract SubdomainRedirect is Ownable {\n \n  struct SubdomainEntry {\n    string redirect; // redirect url\n    address owner; // entry owner\n    uint registeredUntil; // timestamp until this registration is valid\n  }\n\n  uint public registrationFee = 1000000;\n  uint public registrations = 0;\n  uint public registrationPeriod = 1 years + 30 days;\n  mapping (string => SubdomainEntry) entries;\n  mapping (uint => string) names;\n\n  function createRegistration(string name, string redirect) external payable {\n    require(\n      msg.value >= registrationFee &&\n      (entries[name].owner == address(0) || entries[name].registeredUntil < now) &&\n      bytes(redirect).length > 0\n    );\n\n    entries[name].redirect = redirect;\n    entries[name].owner = msg.sender;\n    entries[name].registeredUntil = now + registrationPeriod;\n    names[registrations] = name;\n    registrations += 1;\n  }\n\n  function renewRegistration(string name) external payable {\n    require(\n      msg.value >= registrationFee &&\n      entries[name].owner == msg.sender\n    );\n\n    entries[name].registeredUntil = now + registrationPeriod;\n  }\n\n  function updateRegistration(string name, string redirect) external {\n    require(\n      entries[name].owner == msg.sender &&\n      entries[name].registeredUntil > now\n    );\n\n    entries[name].redirect = redirect;\n  }\n\n  function getRegistration(uint index) public view returns (string, string, uint, address) {\n    require(\n      index >= 0 && index < registrations\n    );\n\n    string memory name = names[index];\n    return (name, entries[name].redirect, entries[name].registeredUntil, entries[name].owner);\n  }\n\n  function clearRegistration(string name, bool full) onlyOwner external {\n    entries[name].redirect = \"\";\n\n    if (full) {\n      entries[name].owner = address(0);\n      entries[name].registeredUntil = 0;\n    }\n  }\n\n}",
  "sourcePath": "/home/stefan/00_bloqs/scenario02/contract/contracts/SubdomainRedirect.sol",
  "compiler": {
    "name": "solc",
    "version": "0.4.18+commit.9cf6e910.Emscripten.clang"
  },
  "schemaVersion": "1.0.1",
  "updatedAt": "2018-01-19T12:31:56.420Z"
}